{
  "contractName": "PickBook",
  "abi": [
    {
      "constant": true,
      "inputs": [
        {
          "internalType": "uint256",
          "name": "",
          "type": "uint256"
        }
      ],
      "name": "pickers",
      "outputs": [
        {
          "internalType": "address",
          "name": "",
          "type": "address"
        }
      ],
      "payable": false,
      "stateMutability": "view",
      "type": "function"
    },
    {
      "constant": false,
      "inputs": [
        {
          "internalType": "uint256",
          "name": "bookId",
          "type": "uint256"
        }
      ],
      "name": "pick",
      "outputs": [
        {
          "internalType": "uint256",
          "name": "",
          "type": "uint256"
        }
      ],
      "payable": false,
      "stateMutability": "nonpayable",
      "type": "function"
    },
    {
      "constant": false,
      "inputs": [
        {
          "internalType": "uint256",
          "name": "bookId",
          "type": "uint256"
        }
      ],
      "name": "k",
      "outputs": [
        {
          "internalType": "uint256",
          "name": "",
          "type": "uint256"
        }
      ],
      "payable": false,
      "stateMutability": "nonpayable",
      "type": "function"
    },
    {
      "constant": true,
      "inputs": [],
      "name": "getPickers",
      "outputs": [
        {
          "internalType": "address[10]",
          "name": "",
          "type": "address[10]"
        }
      ],
      "payable": false,
      "stateMutability": "view",
      "type": "function"
    }
  ],
  "bytecode": "0x608060405234801561001057600080fd5b506103dd806100206000396000f3fe608060405234801561001057600080fd5b506004361061004c5760003560e01c8063443ddba2146100515780637701ea4a14610093578063d77e2f94146100d5578063e73a63311461011b575b600080fd5b61007d6004803603602081101561006757600080fd5b8101908080359060200190929190505050610189565b6040518082815260200191505060405180910390f35b6100bf600480360360208110156100a957600080fd5b8101908080359060200190929190505050610260565b6040518082815260200191505060405180910390f35b6100dd6102d1565b6040518082600a60200280838360005b838110156101085780820151818401526020810190506100ed565b5050505090500191505060405180910390f35b6101476004803603602081101561013157600080fd5b8101908080359060200190929190505050610352565b604051808273ffffffffffffffffffffffffffffffffffffffff1673ffffffffffffffffffffffffffffffffffffffff16815260200191505060405180910390f35b600080821015801561019c575060098211155b6101a557600080fd5b3373ffffffffffffffffffffffffffffffffffffffff16600083600a81106101c957fe5b0160009054906101000a900473ffffffffffffffffffffffffffffffffffffffff1673ffffffffffffffffffffffffffffffffffffffff161461020b57600080fd5b60008083600a811061021957fe5b0160006101000a81548173ffffffffffffffffffffffffffffffffffffffff021916908373ffffffffffffffffffffffffffffffffffffffff160217905550819050919050565b6000808210158015610273575060098211155b61027c57600080fd5b33600083600a811061028a57fe5b0160006101000a81548173ffffffffffffffffffffffffffffffffffffffff021916908373ffffffffffffffffffffffffffffffffffffffff160217905550819050919050565b6102d9610385565b6000600a806020026040519081016040528092919082600a8015610348576020028201915b8160009054906101000a900473ffffffffffffffffffffffffffffffffffffffff1673ffffffffffffffffffffffffffffffffffffffff16815260200190600101908083116102fe575b5050505050905090565b600081600a811061035f57fe5b016000915054906101000a900473ffffffffffffffffffffffffffffffffffffffff1681565b604051806101400160405280600a9060208202803883398082019150509050509056fea265627a7a7231582016fc7f45e520b4652ac49230e9e73d6dd78c285dc0b3d6d314982cf6f74dfbd764736f6c63430005100032",
  "source": "pragma solidity ^0.5.0; \r\n\r\ncontract PickBook{\r\n \r\n    address[10] public pickers;\r\n\r\n    function pick(uint bookId) public returns (uint) {\r\n        require(bookId >= 0 && bookId <= 9);    //Check that the bookId is in range.\r\n        \r\n        pickers[bookId] = msg.sender;\r\n\r\n        return bookId;  //return the bookId provided as a confirmation.\r\n    }\r\n\r\n    function k(uint bookId) public returns (uint) {\r\n        require(bookId >= 0 && bookId <= 9);    //Check that the bookId is in range.\r\n\r\n        require(pickers[bookId] == msg.sender);\r\n        \r\n        pickers[bookId] = 0x0000000000000000000000000000000000000000;\r\n\r\n        return bookId;  //return the bookId provided as a confirmation.\r\n    }\r\n\r\n    //Retrieving the pickers.  //return the entire array\r\n    function getPickers() public view returns (address[10] memory){\r\n        return pickers;\r\n    }\r\n\r\n\r\n\r\n}",
  "sourcePath": "C:/4th year/Project/DApp/b5/b1/contracts/PickBook.sol",
  "compiler": {
    "name": "solc",
    "version": "0.5.16+commit.9c3226ce.Emscripten.clang"
  },
  "schemaVersion": "3.2.3",
  "updatedAt": "2020-12-21T01:34:52.835Z",
  "networkType": "ethereum",
  "devdoc": {
    "methods": {}
  },
  "userdoc": {
    "methods": {}
  }
}